:100000000A128A110C280134FE00030EF0000A08BF
:10001000F1000A168A112E290A128A110F28831359
:10002000D230FD001F30FE002D30FF00C2308400B2
:100030000A168A1554270A128A110A128A110320F5
:100040000A128A11EC000A168A15CD260A128A11A4
:10005000FA000A168A15CE260A128A11FB00A03071
:100060008400C2300A168A15DC260A128A1163300F
:1000700084006C300A168A15DC260A128A11830164
:100080000A128A150C2883120313B301AE01A901C9
:10009000AA01AB01AB0AAC01F20101300A168A15C4
:1000A000E0270A128A11043083120313A3003D30A3
:1000B000A200A20B5928A30B5928C030F6008630A5
:1000C000F7008030F8000A168A1187210A128A1177
:1000D0000A168A1186200A128A1183120313AD00B0
:1000E0002B08031974287528DC28AB01BF300A16C9
:1000F0008A113F200A128A110F30831603133F051D
:1001000083120313A2000A30F200831603133F0880
:1001100083120313A30004300310A30CFF3E031D3E
:100120008C28230803390A168A1578270A128A119F
:10013000831203132207B0000F3083160313400508
:1001400083120313A2000A30F2008316031340083F
:1001500083120313A30004300310A30CFF3E031DFE
:10016000AC28230807390A168A1578270A128A113B
:10017000831203132207B1000F30831603134105C6
:1001800083120313A2000A30F200831603134108FE
:1001900083120313A30004300310A30CFF3E031DBE
:1001A000CC28230807390A168A1578270A128A11DB
:1001B000831203132207B2002F302D06031DE128FE
:1001C000E22812290130FF003308303E84007F0806
:1001D000831380073308031DEE28EF28FD2833081A
:1001E000303E840018300002031CF728F828FD2850
:1001F0003308303E840080012C2933030319012980
:100200000229082902303306031D072908292C2951
:100210003308303E84003C300002031C10291129B1
:100220002C29F8281F302D06031D172918292C29E1
:100230000330F2000030F3003308013EF4000030D8
:1002400003180130F5000A168A1139230A128A119F
:10025000720883120313B30000300A168A11AE200D
:100260000A128A111F3A031D36293729402A013004
:10027000FF007F0883120313AC074130831203137E
:10028000A300ED30A200A20B4329A30B4329482968
:100290006530831203132C02031C4F295029432A73
:1002A0000A30F2000030F3003008A200A301220857
:1002B000F4002308F5000A168A1139230A128A115C
:1002C000720883120313A4007308A5000A30F20019
:1002D0000030F3003008A600A7012608F400270824
:1002E000F5000A168A1192230A128A1172088312E3
:1002F0000313A80003300310A80DFF3E031D7B2944
:100300000310280D2404AF002F08F30002300A1652
:100310008A1100200A128A110A30F2000030F3001C
:10032000831203133108A200A3012208F40023085A
:10033000F5000A168A1139230A128A1172088312EB
:100340000313A4007308A5000A30F2000030F30084
:100350003108A600A7012608F4002708F5000A16B0
:100360008A1192230A128A11720883120313A800B9
:1003700003300310A80DFF3E031DB9290310280DFB
:100380002404AF002F08F30001300A168A11002060
:100390000A128A110A30F2000030F30083120313AC
:1003A0003208A200A3012208F4002308F5000A166F
:1003B0008A1139230A128A11720883120313A400C6
:1003C0007308A5000A30F2000030F3003208A600DE
:1003D000A7012608F4002708F5000A168A119223BF
:1003E0000A128A11720883120313A8000330031043
:1003F000A80DFF3E031DF7290310280D2404AF00AC
:100400002F08F30000300A168A1100200A128A1100
:10041000F20101300A168A15E0270A128A114330C8
:10042000F6008730F7008230F8000A168A1187211B
:100430000A128A115030F6008730F700C230F800F7
:100440000A168A1187210A128A111A30831203139D
:10045000A4005E30A3006D30A200A20B2D2AA30BD6
:100460002D2AA40B2D2A342AF20101300A168A15EE
:10047000E0270A128A1183120313EC01EC0A462BBF
:1004800083120313AC010130A9070318AA0A003034
:10049000AA07103029062A04031D4F2A502A68286B
:1004A000A901AA012E080319562A582A0130592AEF
:1004B0000030AE00C030A0000A30F2000030F3007F
:1004C0003008A200A3012208F4002308F5000A1650
:1004D0008A1192230A128A117208303E0A168A156E
:1004E00063270A128A11C13083120313A0000A3055
:1004F000F2000030F3003008A200A3012208F4004B
:100500002308F5000A168A1139230A128A11720883
:10051000303E0A168A1563270A128A11C2308312E6
:100520000313A0003A300A168A1563270A128A11AB
:10053000C33083120313A0000A30F2000030F3002E
:100540003108A200A3012208F4002308F5000A16CE
:100550008A1192230A128A117208303E0A168A15ED
:1005600063270A128A11C43083120313A0000A30D1
:10057000F2000030F3003108A200A3012208F400C9
:100580002308F5000A168A1139230A128A11720803
:10059000303E0A168A1563270A128A11C530831263
:1005A0000313A0003A300A168A1563270A128A112B
:1005B000C63083120313A0000A30F2000030F300AB
:1005C0003208A200A3012208F4002308F5000A164D
:1005D0008A1192230A128A117208303E0A168A156D
:1005E00063270A128A11C73083120313A0000A304E
:1005F000F2000030F3003208A200A3012208F40048
:100600002308F5000A168A1139230A128A11720882
:10061000303E0A168A1563270A128A1183120313C1
:100620002E080319142B152B68283A2B4730F60097
:100630008630F700C030F8000A168A1187210A12A6
:100640008A1168284730F6008630F700C330F8007A
:100650000A168A1187210A128A1168284730F60083
:100660008630F700C630F8000A168A1187210A1270
:100670008A1168283308003A0319162B013A031926
:10068000222B033A03192E2B452B682808008312CE
:10069000031335088039BF003508B6003607C60099
:1006A000B41F532B542B552B461446080319592BB2
:1006B0005A2B6A2B460A031D5E2B5F2B672B0030DB
:1006C000B5000030B4000030B3000030B200B41701
:1006D000B501722B0030B5000030B4000030B3001B
:1006E0000030B20031088039FF007F08BF063108B2
:1006F000B6003607C700B01F7E2B7F2B802B471418
:1007000047080319842B852B952B470A031D892B3A
:100710008A2B922B0030B1000030B0000030AF00C7
:100720000030AE00B017B1019D2B0030B100003099
:10073000B0000030AF000030AE00310830042F04AC
:100740002E04031DA42BA52BBE2B0030B5000030BA
:10075000B4000030B3000030B2008030B4047F3009
:10076000B5043F08FF007F08B5043508B100340820
:10077000B0003308AF003208AE00152D4608031D47
:10078000C22BC32BCC2B0030B1000030B0000030A6
:10079000AF000030AE00152D4608B600B70137088F
:1007A000B90047083602B800031CB90338087F3E79
:1007B000C00039080318013E003EC1003508BE00E4
:1007C0003408BD003308BC003208BB000030B5005F
:1007D0000030B4000030B3000030B2000030C5007B
:1007E0000030C4000030C3000030C200C701422CFA
:1007F00047080319FC2BFD2B1D2C0130B6000310FC
:10080000BB0DBC0DBD0DBE0DB60BFF2B0130B600F0
:100810000310B20DB30DB40DB50DB60B082CC51FEA
:10082000122C132C142C32140130B6000310C20DFC
:10083000C30DC40DC50DB60B162C31083E02031DA9
:100840002B2C30083D02031D2B2C2F083C02031DCE
:100850002B2C2E083B02031C2E2C2F2C3E2C451734
:100860002E08BB022F08031C2F0FBC023008031CEC
:10087000300FBD023108031C310FBE020130FF00F2
:100880007F08C7071A304702031C472C482CF82B57
:100890003E083D043C043B0403194F2C502C6F2CA4
:1008A00042146F2C0130B6000310B20DB30DB40D1D
:1008B000B50DB60B542CC51F5E2C5F2C602C32146A
:1008C0000130B6000310C20DC30DC40DC50DB60B2B
:1008D000622CFF30C0070318C10AFF30C107B41FE4
:1008E000722C732C522CC701C51F772C782C942C9A
:1008F000FF304205B600FF304305B700FF30440526
:10090000B8007F304505B90039083804370436048B
:1009100003198B2C8C2C8F2CC701C70A942C321CEA
:10092000922C932C942C8C2C47080319982C992CDE
:10093000CA2C0130B207003003180130B307003071
:1009400003180130B407003003180130B507351C17
:10095000AA2CAB2CCA2C3208B6003308B7003408D6
:10096000B8003508B9000130BA00390DB90CB80C1F
:10097000B70CB60CBA0BB52C3908B5003808B40062
:100980003708B3003608B2000130C0070318C10AA7
:100990000030C1074108803AFF0080307F02031D0C
:1009A000D32CFF304002031CD62CD72CE52CFF3073
:1009B00083120313C0000030C1000030B5000030C6
:1009C000B4000030B3000030B200831203134108BA
:1009D000803AFF0080307F02031DF02C013040027E
:1009E0000318F32CF42C012D83120313C001C10151
:1009F0000030B5000030B4000030B3000030B20069
:100A0000BF01831203134008C600461C082D092DA0
:100A10000B2DB4170F2D7F30FF007F08B40546085B
:100A2000B6000310360CB500B12B08008312031377
:100A3000BC01BD01BE010030F3008630F4000A168F
:100A40008A1160200A128A11D82DBF01C0018312B9
:100A500003133F08203E84003F083C070A168A1112
:100A600003210A128A1183138000013083120313B9
:100A7000BF070318C00A0030C0074008803AFF00D3
:100A800080307F02031D462D0C303F02031C492D90
:100A90004A2D272D83120313AC012030F2000830B9
:100AA000F3000030F4002D300A168A11E6210A12F4
:100AB0008A1183120313B5012830F2000230F300CB
:100AC0000030F40036300A168A11E6210A128A1123
:100AD00083120313B8012A30F2000230F300003011
:100AE000F40039300A168A11E6210A128A1183129B
:100AF0000313BB0100303E020A3003193D02031804
:100B0000822D832D932D3D08303E0A168A15152718
:100B10000A128A119D30F3008730F4000A168A11F8
:100B200060200A128A112D30F3000030F4000A16FA
:100B30008A1160200A128A114630F3008630F400D0
:100B40000A168A1160200A128A113630F30000302A
:100B5000F4000A168A1160200A128A114430F30048
:100B60008630F4000A168A1160200A128A11393080
:100B7000F3000030F4000A168A1160200A128A116C
:100B80000D300A168A1515270A128A110A300A161C
:100B90008A1515270A128A110C30FF007F0883126C
:100BA0000313BC070130BD070318BE0A0030BE079F
:100BB0008312031364083E02031DE02D63083D0207
:100BC000031CE32DE42D252D2030F3008630F400A6
:100BD0000A168A1160200A128A110800FF1BF82DDC
:100BE00083137F1883170008840A0319FF0A08007B
:100BF0007F087F398A000408840A0319FF0A8200EB
:100C0000533452342E346E346F342E342034203426
:100C1000543469346D346534203420342034203425
:100C20002034203447346534613472342034203425
:100C3000533470346534653464340A340D3400340C
:100C40004C346F346734203464346F3477346E340A
:100C50006C346F3461346434203463346F346D34F5
:100C600070346C346534743465342E340D340A3485
:100C700000342034203420342034203420342034F4
:100C800020342034203420342034203420342034C4
:100C900020340034203445346E3474346534723476
:100CA0002034503461347334733477346F34723495
:100CB00064342034003420342034543449344D34E6
:100CC0004534203420342034203445345634203404
:100CD00020345334503400342334203454344934D1
:100CE0004D344534203420342034203420344534ED
:100CF000563420345334503400345234653445343F
:100D00006E34743465347234203450346134733446
:100D1000733477346F3472346434003443346F3452
:100D20007234723465346334743420347034613412
:100D30007334733477346F3472346434003455341C
:100D4000413452345434203454346534733474345C
:100D5000203443346F34643465340A340D34003441
:100D6000573472346F346E346734203470346134E5
:100D70007334733477346F34723464342034003411
:100D8000543469346D34653420342834483448345C
:100D90003A344D344D343A345334533429340034D6
:100DA0006C346F3467347334203464346F34773484
:100DB0006E346C346F3461346434653464340034BC
:100DC000203461347434743465346D347034743464
:100DD000733420346C3465346634743400345234E3
:100DE00065347334653474342034543469346D3468
:100DF000653420342034203400346C346F3467344C
:100E00007334203463346C34653461347234653443
:100E100064342034003444346F3477346E346C34AA
:100E20006F346134643420346C346F34673420346C
:100E300000345234653473347434203450346134A3
:100E40007334733477346F3472346434003456340A
:100E500069346534773420344C346F3467347334F8
:100E60002034203420342034003443346C3465344E
:100E70006134723420344C346F346734733420342A
:100E8000203420340034543469346D3465342034D3
:100E90006334683461346E346734653464340034E8
:100EA0005334753463346334653473347334663463
:100EB00075346C346C347934003473347534633481
:100EC0006334653473347334663475346C346C3421
:100ED00079340034503461347334733477346F347C
:100EE00072346434203469347334003461347234BD
:100EF0006534203466346F3475346E346434213490
:100F0000003420344E346F3420346C346F34673402
:100F10007334203400344D34693473346D346134A7
:100F2000743463346834003457346134693474344D
:100F3000203446346F34723400342E34203420345C
:100F40002034203420342034003443346834613475
:100F50006E34673465346434003473346534633418
:100F60002E342E342E3400344334203400344734AD
:100F700031340034473432340034473433340034AD
:100F800047343434003447344E3400344F344E3414
:100F900000344734523400342A34003483120313AB
:100FA00094152608AA002708AB002808AC002908D9
:100FB000AD0002300310AA0DAB0DAC0DAD0DFF3E20
:100FC000031DDA2F2D08F5002C08F4002B08F30080
:100FD0002A08F2000130F9003130F8002D30F70016
:100FE0000030F6000A168A11F9230A128A117208D3
:100FF000FF3E831603139300831203139416080015
:10100200831603138801091189100A168A11E42232
:101012000A128A1508000A168A115D220A128A1516
:10102200033083160313D7000030D800D901D20150
:10103200D301D501D601831603135508B73E8400A8
:1010420055087D3E0A168A1103210A128A15831356
:101052008000013083160313D5070318D60A003027
:10106200D6075608803AFF0080307F02031D3B28D6
:1010720004305502031C3E283F281C288316031304
:10108200BB01831203136C08031948284928092954
:101092000A168A1146270A128A150A168A1186200A
:1010A2000A128A1583160313D4003E305406031D18
:1010B2005B285C286828073083120313E70000309E
:1010C200E8000A128A1529220A128A1542283D309E
:1010D2005406031D6D286E287E28063083120313E2
:1010E2006706680403197628772842280130E70743
:1010F2000318E80A0030E80762283B305406031D53
:10110200832884289328831203136703680403192E
:101112008B288C289D280130E7020030031CE8034D
:10112200E802622837305406031D982899289D2822
:1011320083120313EC0142284228D730831203138F
:10114200A200B7300A128A1515210A128A158312D3
:101152000313220823040319AF28B028EB28F20155
:1011620001300A168A15E0270A128A150430831202
:101172000313E2003D30E100E10BBD28E20BBD2884
:101182002730F6008730F7008330F8000A168A11FC
:1011920087210A128A153530F6008730F700C330EE
:1011A200F8000A168A1187210A128A15D230831290
:1011B2000313DF00D9300A128A1568230A128A152E
:1011C200831203136C080319E728E828D72883162B
:1011D2000313D90183126C080319F028F128F228AD
:1011E20042288316031357085804031DF928FA28C6
:1011F20009290A168A1142250A128A150330831612
:101202000313D7000030D80083120313EC01EC0A59
:101212008316031357085804031D102911299E2809
:1012220042280A128A110C2883120313AC002730B9
:1012320084000530FF0083138001840AFF0B1C2900
:10124200B101B2010530AD000030AE004A30F60007
:101252008630F7008030F8000A168A1187210A12B8
:101262008A153930F6008630F700C030F8000A16C9
:101272008A1187210A128A1587290A168A1186205D
:101282000A128A1583120313B30052308312031316
:10129200A400A40B4A2900002F3083120313330643
:1012A2000319542955295B291F303306031D5A2976
:1012B2005B2987292F3033060319602961296629A2
:1012C2003030AF000030B0006A293130AF0000305A
:1012D200B0003108273E84002F08831380002D08B8
:1012E200C03EA0002A300A168A1563270A128A1500
:1012F200013083120313AD070318AE0A0030AE07A4
:101302000130B1070318B20A0030B207003083126D
:1013120003133202043003193102031C912992296A
:101322003E29AB012C08F20027300A168A115A21F5
:101332000A128A1572087304031DA029A129B32970
:101342008E30F6008630F7008030F8000A168A11D7
:1013520087210A128A15013083120313A20000307A
:10136200A300282A83120313220884000130831366
:101372008002840F0030031C800380028403B0309B
:10138200F6008630F7008030F8000A168A118721AD
:101392000A128A151A3083120313A6005E30A500C2
:1013A2006D30A400A40BD329A50BD329A60BD329F6
:1013B200DA293930F6008630F7008030F8000A1654
:1013C2008A1187210A128A158312031322088400C4
:1013D20083130008A400840A0008A5002408250439
:1013E2000319F429F529242AF20101300A168A1573
:1013F200E0270A128A15803083120313A000220804
:10140200840083130008303E0A168A1563270A12E5
:101412008A15E030F6008630F7008130F8000A16AF
:101422008A1187210A128A151A3083120313A60021
:101432005E30A5006D30A400A40B1D2AA50B1D2A49
:10144200A60B1D2A242A83120313A201A30108005A
:10145200831603132B082C040319302A312A332A4A
:10146200AB01AC01831203136408B3006308B2003A
:101472003308803AFF0080307F02031D422A013088
:1014820032020318452A462A472AB22A8312031334
:10149200B401B501831203133408253E84000C30D5
:1014A200F20032080A168A1578270A128A15831260
:1014B20003133407F43E0A168A1103210A128A150D
:1014C20083138000013083120313B4070318B50A93
:1014D2000030B5073508803AFF0080307F02031DD7
:1014E200742A0C303402031C772A782A4B2A83127E
:1014F2000313B601B701831203133608253E840095
:1015020083130008F5000C30F20032080A168A151F
:1015120078270A128A158312031336070A168A15C8
:10152200A3270A128A15013083120313B607031880
:10153200B70A0030B7073708803AFF0080307F02D1
:10154200031DA52A0C303602031CA82AA92A7C2ACC
:10155200FF3083120313B2070318B30AFF30B30735
:10156200392A83120313B101B801B901831203139B
:101572003808AE3E840083130008FF003808253E79
:1015820084007F0880000130B8070318B90A0030D0
:10159200B9073908803AFF0080307F02031DD32A41
:1015A20008303802031CD62AD72AB72A831203131B
:1015B2006708A0002007C23E840083130008A10030
:1015C200840A0008A2002208FF00210884000A12EF
:1015D2008A11EE250A128A15AD000130A0000030F2
:1015E200A1006708A2002207C23E840083130008FC
:1015F200A300840A0008A40020082307840021080D
:101602000318210A2407FF000A128A11EE250A1282
:101612008A15AE00BA01BB01831203133A08BC3E1D
:10162200840083130008FF003A080A3E253E840026
:101632007F0880000130BA070318BB0A0030BB07DD
:101642003B08803AFF0080307F02031D2A2B0230C4
:101652003A02031C2D2B2E2B0D2B83120313BC01DC
:10166200BD01831203133C08253E84008313000846
:10167200F5003C0831070A168A15A3270A128A15B3
:10168200013083120313BC070318BD0A0030BD07E3
:101692003D08803AFF0080307F02031D522B0C3040
:1016A2003C02031C552B562B322B003083120313A2
:1016B20064020A30031963020318602B612B672B43
:1016C2000130E3070318E40A0030E407080083123C
:1016D2000313E0000A168A1186200A128A150030C6
:1016E2000A168A11AE200A128A152F3A031D7A2B86
:1016F2007B2B882B83120313EA01EA0A013083163B
:101702000313A7070318A80A0030A807C02B8312E7
:1017120003136A0803198E2B8F2BC02B00308316FC
:1017220003132802143003192702031C992B9A2B46
:10173200A62B8312031360088400831300080A1681
:101742008A11D3250A128A15B92B83120313600852
:101752008400831300080319AF2BB02BB52B60084C
:10176200840001308002B92B6008840007308000B9
:1017720083120313EA0183160313A701A8010030A1
:101782000A168A11AE200A128A151F3A031DCA2BA5
:10179200CB2BD82B83120313E901E90A01308316FC
:1017A2000313A5070318A60A0030A6070F2C8312FD
:1017B200031369080319DE2BDF2B0F2C003083166D
:1017C20003132602143003192502031CE92BEA2B0A
:1017D200F62BF20101300A168A15E0270A128A1541
:1017E20083120313EC01EC0A0A2C0130FF0083126E
:1017F2000313600884007F08831380076008840055
:1018020008300002031C062C072C0A2C60088400F6
:101812008001E90183160313A501A6018312600862
:10182200840083130008031D172C182C2F2C27303B
:10183200F6008730F7008330F8000A168A118721F4
:101842000A128A153530F6008730F700C330F800E7
:101852000A168A1187210A128A158C2C60088400C4
:1018620002300006031D362C372C4E2C3530F60084
:101872008730F7008330F8000A168A1187210A128E
:101882008A150B30F6008730F700C330F8000A16CD
:101892008A1187210A128A158C2C60088400043070
:1018A2000006031D552C562C6D2C0B30F60087308C
:1018B200F7008330F8000A168A1187210A128A1566
:1018C2001930F6008730F700C330F8000A168A1183
:1018D20087210A128A158C2C6008840006300006C3
:1018E200031D742C752C8C2C1930F6008730F700F0
:1018F2008330F8000A168A1187210A128A15EF30FE
:10190200F6008630F700C330F8000A168A118721E4
:101912000A128A158C2C8312031360088400831325
:101922000018942C952CAC2CCC30F6008730F700A4
:101932008130F8000A168A1187210A128A15483066
:10194200F6008630F700C130F8000A168A118721A6
:101952000A128A15C22CCC30F6008730F700C1304B
:10196200F8000A168A1187210A128A154830F600F1
:101972008630F7008130F8000A168A1187210A1290
:101982008A15080083120313B701B8010530B300AA
:101992000030B4004A30F6008630F7008030F8009C
:1019A2000A168A1187210A128A153930F600863002
:1019B200F700C030F8000A168A1187210A128A1528
:1019C2002E2D0A168A1186200A128A1583120313F3
:1019D200B900823083120313A300DD30A200A20BF0
:1019E200F02CA30BF02C2F308312031339060319AA
:1019F200FB2CFC2C022D1F303906031D012D022D5C
:101A02002E2D2F3039060319072D082D0D2D3030BC
:101A1200AF000030B000112D3130AF000030B00007
:101A220037082A3E84002F08831380003308C03E03
:101A3200A0002A300A168A1563270A128A15013075
:101A420083120313B3070318B40A0030B40701303A
:101A5200B7070318B80A0030B8070030831203131F
:101A62003802043003193702031C382D392DE22CB9
:101A7200AE01B701B8010530B3000030B4007D30CB
:101A8200F6008630F7008030F8000A168A118721A6
:101A92000A128A153930F6008630F700C030F80095
:101AA2000A168A1187210A128A15A32D0A168A118B
:101AB20086200A128A1583120313B9008230831218
:101AC2000313A300DD30A200A20B652DA30B652D2D
:101AD2002F308312031339060319702D712D772DC0
:101AE2001F303906031D762D772DA32D2F30390691
:101AF20003197C2D7D2D822D3030B1000030B200D3
:101B0200862D3130B1000030B2003708253E840006
:101B12003108831380003308C03EA0002A300A1621
:101B22008A1563270A128A15013083120313B30739
:101B32000318B40A0030B4070130B7070318B80A13
:101B42000030B8070030831203133802043003193F
:101B52003702031CAD2DAE2D572DA9012530F20001
:101B62002A300A168A115A210A128A157208730437
:101B7200031DBC2DBD2D0D2E2A30F200B7300A16E2
:101B82008A158D270A128A157D3083120313B50038
:101B92000030B600831203133508833E2A3E8400C8
:101BA20083130008F50035080A168A15A3270A12BE
:101BB2008A15013083120313B5070318B60A0030E1
:101BC200B6073608803AFF0080307F02031DEB2DF6
:101BD20081303502031CEE2DEF2DCB2DF2010130A9
:101BE2000A168A15E0270A128A156A30F60087302B
:101BF200F7008230F8000A168A1187210A128A1524
:101C0200A530F6008730F700C430F8000A168A11B2
:101C120087210A128A152A2EF20101300A168A1524
:101C2200E0270A128A158530F6008630F7008330E5
:101C3200F8000A168A1187210A128A158B30F600DB
:101C42008730F700C330F8000A168A1187210A127A
:101C52008A151A3083120313A4005E30A3006D307C
:101C6200A200A20B322EA30B322EA40B322E392E3F
:101C7200F20101300A168A15E0270A128A15831228
:101C82000313EC01EC0A080083120313CF01D901FC
:101C9200DA01CD01CE01831603132B082C04031D98
:101CA200532E542EC22F6C30F6008630F70080304F
:101CB200F8000A168A1187210A128A15C030831287
:101CC2000313A0005908303E0A168A1563270A1228
:101CD2008A1583120313D001D10183120313500812
:101CE200413E840050084F070A168A1103210A1246
:101CF2008A1583138000013083120313D00703185F
:101D0200D10A0030D1075108803AFF0080307F02AB
:101D1200031D8D2E0C305002031C902E912E6E2E20
:101D220083120313D201D301831203135208C23E5A
:101D3200A0005208413E8400831300080A168A1547
:101D420063270A128A15013083120313D20703187C
:101D5200D30A0030D3075308803AFF0080307F0255
:101D6200031DB52E08305202031CB82EB92E952E33
:101D720083120313D401D501831203135408CB3EFB
:101D8200A0005408083E413E8400831300080A164E
:101D92008A1563270A128A15013083120313D407A6
:101DA2000318D50A0030D5075508803AFF00803065
:101DB2007F02031DDE2E02305402031CE12EE22EAE
:101DC200BD2E83120313D601D701831203135608C3
:101DD200CE3EA00056080A3E413E8400831300080E
:101DE2000A168A1563270A128A1501308312031311
:101DF200D6070318D70A0030D7075708803AFF00E2
:101E020080307F02031D072F02305602031C0A2F67
:101E12000B2FE62E0A168A1186200A128A158312C1
:101E22000313D8002F305806031D182F192F352FF2
:101E320059085A04031D1E2F1F2F242F6408DA008D
:101E42006308D9002A2F0130D9020030031CDA03BB
:101E5200DA020C30F20059080A168A1578270A129B
:101E62008A1583120313CF001F305806031D3A2F21
:101E72003B2F622F64085A02031D412F6308590247
:101E82000318442F452F622F0130D9070318DA0AAD
:101E92000030DA0764085A06031D512F63085906F9
:101EA200031D542F552F572FD901DA010C30F200A0
:101EB20059080A168A1578270A128A1583120313FB
:101EC200CF003E305806031D672F682F722F073050
:101ED200E7000030E8000A128A1529220A128A1540
:101EE200992F3D305806031D772F782F862F063005
:101EF2006706680403197E2F7F2F992F0130E707A9
:101F02000318E80A0030E8076C2F3B305806031D1F
:101F12008B2F8C2F992F670368040319912F922F0F
:101F2200992F0130E7020030031CE803E8026C2F0E
:101F320000300A168A11AE200A128A151F3A031DB2
:101F4200A32FA42FBD2F013083120313CD07031833
:101F5200CE0A0030CE0700304E020B3003194D027C
:101F6200031CB42FB52FFE2FF20101300A168A1579
:101F7200E0270A128A15FF2F83120313CD01CE0127
:101F82004C2E2B032C04031DC72FC82F4C2E81303F
:101F9200F6008730F7008030F8000A168A11872190
:101FA2000A128A157630F6008730F700C430F8003E
:101FB2000A168A1187210A128A151A30831203130C
:101FC200C0005E30BF006D30BE00BE0BE62FBF0BFF
:101FD200E62FC00BE62FED2FF20101300A168A150B
:101FE200E0270A128A1583120313EC01EC0A6C082B
:101FF2000319FC2FFD2FFE2FFF2F4C2E0800F4009B
:102002000A168A15E4260A168A11D0300A168A158B
:10201200FF260A168A1174080A168A15FF260A165E
:102022008A1173080A168A15FF260A168A110A16D9
:102032008A15ED260A168A110800F2000A168A1578
:1020420020270A168A118316031391150A168A1578
:1020520020270A168A11831203131308F30072034E
:10206200031D3428352839288316031391163C287A
:10207200831603139112111673080800F6007608EE
:10208200840002300A168A11D8200A168A11831394
:102092008000760A840001300A168A11D8200A16B6
:1020A2008A11831380007608023E840000300A16EB
:1020B2008A11D8200A168A11831380000800752815
:1020C2007408FF00730884000A128A11EE250A16AA
:1020D2008A110A168A1515270A168A110130F30782
:1020E2000318F40A0030F407740883120313FF0084
:1020F200730884000A128A11EE250A168A11003A20
:10210200031D84288528612808000230F600453026
:10211200F500A930F400F40B8C28F50B8C28F60B93
:102122008C28932801300A168A11AE200A168A11C9
:10213200F7003F30770603199F28A028AA283F30CE
:102142007A06031DA528A628AA287708FA00770888
:10215200AD287708FA003F300800F3007308031D2A
:10216200B328B428B9288312031306083F39D728A5
:102172003F30831203130605F2003F307206031943
:10218200C328C428CB287B080319C828C928CB2810
:10219200FB01B4283F300605F2003F307206031DF2
:1021A200D328D428D628FB01FB0A3F300800F400CC
:1021B2000A168A15E4260A168A11D0300A168A15DA
:1021C200FF260A168A1174080A168A15FF260A16AD
:1021D2008A110A168A150A270A168A11D1300A1696
:1021E2008A15FF260A168A1100300A168A111E2045
:1021F2000A168A11F5000A168A15ED260A168A11A0
:1022020075080800F4000A168A15E4260A168A11CF
:10221200A0300A168A15FF260A168A1174080A16B1
:102222008A15FF260A168A110A168A150A270A161D
:102232008A11A1300A168A15FF260A168A11003061
:102242000A168A111E200A168A11F5000A168A1524
:10225200ED260A168A11750808000B1D312932294C
:102262005329831203130108083E810001308316AB
:102272000313A9070318AA0A0030AA072030290667
:102282004E3003192A06031D472948295229A9015C
:10229200AA01013083120313E5070318E60A00308E
:1022A200E6070B1171088A00700E8300FE0E7E0E87
:1022B2000900F60064290130FF007F08F6070130AB
:1022C200FF007F08F2077208840083130008F400FD
:1022D2007608840000087406031D70297129782984
:1022E200760884000008031D772978295C29720882
:1022F20084000008F400760884000008F5007408E1
:102302007502F200F301031CF3030800F2017808DE
:102312000A168A15E0270A168A11A529F201F20A7D
:102322007708FF00760884000A128A11EE250A1641
:102332008A110A168A15E0270A168A110130F60751
:102342000318F70A0030F707770883120313FF0018
:10235200760884000A128A11EE250A168A11003ABA
:10236200031DB429B5298F29080083120313981776
:1023720018162608AA002708AB002808AC0029086E
:10238200AD0004300310AA0DAB0DAC0DAD0DFF3E38
:10239200031DC3292D08F5002C08F4002B08F300B7
:1023A2002A08F2000130F9003130F8002D30F70030
:1023B2000030F6000A168A11F9230A168A117208E9
:1023C200FF3E8316031399000800F5007508F60016
:1023D200032A0130F3020030031CF403F4027208F2
:1023E20084000130F20783130008FF00760884009E
:1023F2000130F6077F0880000008031D012A022A27
:10240200032A122A73087404031D082A092AEA29D6
:10241200122A76088400831380010130FF007F08AE
:10242200F6070130F3020030031CF403F402730ACE
:10243200031D1F2A740A031D1F2A202A0A2A0800C4
:1024420083120313200821040319282A292A582A4F
:10245200F901F90A372A01300310A00DA10DFF3E40
:10246200031D2D2A0130FF007F08F907A11F3A2A18
:102472003B2A2C2A21082302031D412A200822027A
:10248200031C442A452A4B2A2008A2022108031CC5
:10249200A303A30201300310A10CA00CFF3E031DF5
:1024A2004C2A0130F902031D572A582A3B2A2308D5
:1024B200A1002208A00008000A128A1501200A16AB
:1024C2008A110A168A15D5260A168A110030831235
:1024D2000313A9000130A8008630A700A030A6008F
:1024E2000A128A11CE270A168A110A168A153D2760
:1024F2000A168A110A168A15CF260A168A110A1690
:102502008A15F6260A168A118B170B1700308312CA
:102512000313A9000030A8002530A7008030A600D0
:102522000A168A11B6210A168A119F30F3008630E4
:10253200F4000A168A1160200A168A110800F701AF
:10254200F801720873040319A72AA82ADF2AF601E0
:10255200F60AB62A01300310F20DF30DFF3E031DF9
:10256200AC2A0130FF007F08F607F31FB92ABA2A06
:10257200AB2A01300310F70DF80DFF3E031DBB2AF5
:1025820073087502031DC72A72087402031CCA2A43
:10259200CB2AD22A7208F4027308031CF503F5024F
:1025A200771401300310F30CF20CFF3E031DD32A03
:1025B2000130F602031DDE2ADF2ABA2A7808F30068
:1025C2007708F2000800C330F700CD30F600F60BB2
:1025D200E82AF70BE82AF20133300A168A15E027B7
:1025E2000A168A111B30F7009E30F600F60BF72A06
:1025F200F70BF72A0000F20133300A168A15E0279A
:102602000A168A11042B052B0000F20133300A1638
:102612008A15E0270A168A110E2B0F2B0000F201F1
:1026220038300A168A15E0270A168A11A630F600F3
:10263200F60B192B0000F20101300A168A15E02769
:102642000A168A110430F7003D30F600F60B272BEC
:10265200F70B272B2C2BF2010C300A168A15E027D8
:102662000A168A11A630F600F60B352B0000080078
:10267200F701F51F3D2B3E2B452BF409F509F40A12
:102682000319F50AF701F70AF31F482B492B4E2BC2
:10269200F209F309F20A0319F30A7208730403191F
:1026A200532B542B832BF601F60A622B01300310B5
:1026B200F20DF30DFF3E031D582B0130FF007F0882
:1026C200F607F31F652B662B572B73087502031D44
:1026D2006C2B72087402031C6F2B702B762B720802
:1026E200F4027308031CF503F50201300310F30C26
:1026F200F20CFF3E031D772B0130F602031D822BE5
:10270200832B662B77080319872B882B8D2BF409D3
:10271200F509F40A0319F50A7508F3007408F200C2
:102722000800F701F31F962B972B9E2BF209F30952
:10273200F20A0319F30AF701F70AF51FA12BA22BDC
:10274200AB2BF409F509F40A0319F50A0130FF006D
:102752007F08F706F801F901720873040319B22B16
:10276200B32BEA2BF601F60AC12B01300310F20D4E
:10277200F30DFF3E031DB72B0130FF007F08F60764
:10278200F31FC42BC52BB62B01300310F80DF90D26
:10279200FF3E031DC62B73087502031DD22B720860
:1027A2007402031CD52BD62BDD2B7208F40273089E
:1027B200031CF503F502781401300310F30CF20C3C
:1027C200FF3E031DDE2B0130F602031DE92BEA2B2F
:1027D200C52B77080319EE2BEF2BF42BF809F90917
:1027E200F80A0319F90A7908F3007808F2000800D8
:1027F200003083120313A4000030A3000030A200B3
:102802000030A100750874047304720403190A2CC1
:102812000B2C582CA501A50A1B2C0130A00003107B
:10282200F20DF30DF40DF50DA00B102C0130FF008D
:102832007F08A507F51F1E2C1F2C0E2C0130A000AF
:102842000310A10DA20DA30DA40DA00B212C750840
:102852007902031D362C74087802031D362C730886
:102862007702031D362C72087602031C392C3A2C8F
:10287200492C7208F6027308031C730FF7027408DE
:10288200031C740FF8027508031C750FF90221145A
:1028920001300310F50CF40CF30CF20CFF3E031D97
:1028A2004A2C0130A502031D572C582C1F2C24083A
:1028B200F5002308F4002208F3002108F2000800C2
:1028C20083120313A0002008840083130008F90078
:1028D20004300310F90CFF3E031D6A2C79080339FA
:1028E200303E83160313AE008312031320088400C4
:1028F20000080F39303E83160313AF003A30B000A0
:1029020083120313200A84000008F9000430031024
:10291200F90CFF3E031D882C79080739303E8316D7
:102922000313B10083120313200A840000080F3935
:10293200303E83160313B2003A30B30083120313FE
:102942002008023E84000008F90004300310F90C4C
:10295200FF3E031DA72C79080739303E8316031367
:10296200B400831203132008023E840000080F39CA
:10297200303E83160313B500B601AE30F6000030C8
:10298200F700C130F8000A168A1187210A168A1147
:1029920008000310831203134A0D4B0DF900790846
:1029A200031DD42CD52CDE2C0030CB000030CA0005
:1029B2000030C9000030C800412D4808CC00490849
:1029C200CD004A08CE004B08CF001F300310CF0CB9
:1029D200CE0CCD0CCC0CFF3E031DE72C4C08F800AE
:1029E200CA17FF30C805FF30C905FF30CA050030DD
:1029F200CB059630F902F91FFF2C002D1A2D79080C
:102A0200803A973E0318062D072D082DD52C01304C
:102A12000310CB0CCA0CC90CC80CFF3E031D092DB8
:102A22000130FF007F08F907031D182D192D082D0D
:102A3200312D20307902031C1F2D202D2C2DD52C59
:102A42000130CC000310C80DC90DCA0DCB0DCC0B43
:102A5200232D0130F9027908031D302D312D212D4E
:102A620078080319352D362D412DC809C909CA091F
:102A7200CB09C80A0319C90A0319CA0A0319CB0ADE
:102A820008008B16F20101300A168A15E0270A1691
:102A92008A11C42D9430F6008730F7008430F80094
:102AA2000A168A1187210A168A116430F200003050
:102AB200F300831203136608F5006508F4000A1692
:102AC2008A11A0220A168A11720883120313A40023
:102AD2000A30A0000030A1000A30F2000030F300FA
:102AE2006608F5006508F4000A168A11A0220A1683
:102AF2008A11730883120313A3007208A2000A1634
:102B02008A1121220A168A11831203132008A500B2
:102B12000A30A0000030A1006608A3006508A200E8
:102B22000A168A1121220A168A1183120313200817
:102B3200A600C430A0002408303E0A168A15632776
:102B42000A168A11C53083120313A0002508303EED
:102B52000A168A1563270A168A11C63083120313CE
:102B6200A0002608303E0A168A1563270A168A1123
:102B7200AD30F6008730F700C830F8000A168A1127
:102B820087210A168A1100308312031366027830F5
:102B920003196502031CCE2DCF2D4B2DE501E60155
:102BA2008B12080083120313DE00F20101300A16B1
:102BB2008A15E0270A168A11043083120313DC00F7
:102BC2003D30DB00DB0BE32DDC0BE32D8312031323
:102BD2005E08031DED2DEE2DF42D0A128A154526F1
:102BE2000A168A118B2E5E030319F82DF92DFF2D7B
:102BF20002305E06031DFE2DFF2D282E01308316A6
:102C02000313AB000030AC0083120313E301E401B1
:102C1200FD30F6008630F7008230F8000A168A117D
:102C220087210A168A111A3083120313DD005E30DF
:102C3200DC006D30DB00DB0B1C2EDC0B1C2EDD0BF5
:102C42001C2E232E83120313EC01EC0A8B2E03306D
:102C52005E0603192D2E2E2E342E04305E06031D21
:102C6200332E342E6D2EF20101300A168A15E0271A
:102C72000A168A110A128A1116250A168A11D030EA
:102C8200F6008630F7008030F8000A168A11872194
:102C92000A168A115D30F6008730F700C030F8005E
:102CA2000A168A1187210A168A111A30831203130F
:102CB200DD005E30DC006D30DB00DB0B5E2EDC0BFA
:102CC2005E2EDD0B5E2E652EF20101300A168A158C
:102CD200E0270A168A11232E05305E060319722E8A
:102CE200732E792E06305E06031D782E792E7F2EE6
:102CF2000A128A15C3240A168A118B2E07305E0621
:102D0200031D842E852E8B2E0A128A1143200A1649
:102D12008A118B2E080083120313A80028080319B6
:102D2200932E942EA82EA31F972E982EA82E2009FC
:102D3200AA002109AB002209AC002309AD00AA0AAE
:102D42000319AB0A0319AC0A0319AD0AB02E230802
:102D5200AD002208AC002108AB002008AA0023081D
:102D6200220421042004031DB72EB82EC12E0030E8
:102D7200A3000030A2000030A1000030A000452FC7
:102D82009630A900D12E0130FF007F08A90701303B
:102D92000310AD0CAC0CAB0CAA0CFF3E031DC92EEC
:102DA200FE302D05031DD62ED72EC42EF32E013054
:102DB200FF007F08A9070130AA070030031801307D
:102DC200AB07003003180130AC07003003180130A4
:102DD200AD0701300310AD0CAC0CAB0CAA0CFF3EDE
:102DE200031DEB2EFF302D05031DF82EF92ED82ED4
:102DF200052F0130A9020130A4000310AA0DAB0D6A
:102E0200AC0DAD0DA40BFE2EAC1B082F092F0F2FFE
:102E12000230290203180E2F0F2FFA2E2918122F13
:102E2200132F1B2FFF30AA05FF30AB057F30AC05F7
:102E3200FF30AD050310A90C2908A400A501A601C5
:102E4200A70118300310A40DA50DA60DA70DFF3E76
:102E5200031D232F2408AA042508AB042608AC046A
:102E62002708AD0428080319372F382F3D2FA31F39
:102E72003B2F3C2F3D2FAD172D08A3002C08A2009D
:102E82002B08A1002A08A00008005B30F60086305B
:102E9200F7008030F8000A168A1187210A168A1173
:102EA200BF300A168A113F200A168A11BF300A164D
:102EB2008A1161240A168A11831203136708D0004B
:102EC2005007C23E840083130008F600840A0008FB
:102ED2008403F700CA30F8000A168A1187210A16FD
:102EE2008A1100300A168A15C1270A168A11720839
:102EF20083120313D0007308D100D201D301530807
:102F0200A3005208A2005108A1005008A0000030FE
:102F12000A168A118C260A168A11831203132308B1
:102F2200B5002208B4002108B3002008B2004130E5
:102F3200B1002330B000AE30AF001430AE000A1240
:102F42008A1147230A168A11831203133108CB0010
:102F52003008CA002F08C9002E08C8000A168A11B4
:102F6200CA240A168A11831203134908D500480895
:102F7200D4000A30A0000030A1000A30F200003074
:102F8200F3005508F5005408F4000A168A11A0222D
:102F92000A168A11730883120313A3007208A2008F
:102FA2000A168A1121220A168A1183120313200893
:102FB200303E83160313BC000A3083120313A000B1
:102FC2000030A1005508A3005408A2000A168A1175
:102FD20021220A168A11831203132008303E831617
:102FE2000313BD00BE01BC30F6000030F700CE3046
:0E2FF200F8000A168A1187210A168A110800B3
:103D9A003F3401348316031306083F3886000800AF
:103DAA00831603139F17831203131F14080064005A
:103DBA008001840A0406031900340406DD2E0A165B
:103DCA008A1520270A168A15831603131114080068
:103DDA000A168A1520270A168A158316031311153F
:103DEA000800831603138112811506308312031308
:103DFA0081000800F2000A168A1520270A168A1579
:103E0A00720883120313930008000A168A15ED2616
:103E1A000A168A150A168A15E4260A168A15080049
:103E2A00F200831203130C1E1B2F1C2F162F72086D
:103E3A0099000C120800831603131419252F262F34
:103E4A00202F11081F39031D2B2F2C2F202F08007C
:103E5A00C6348734C3348734B7348734BA348734A2
:103E6A00BD348734C0348734C9348734B434873492
:103E7A0000300A168A11D8200A168A15F600760822
:103E8A007F39F6007608F30000300A168A110020FE
:103E9A000A168A1508007E088A007F0882000A1618
:103EAA008A1550270A168A158000840A04087D0696
:103EBA0003190034FF0A0319FE0A542F831203134D
:103ECA00A100F20120080A168A15E0270A168A15A7
:103EDA00F201F20A8312031321080A168A15E0274F
:103EEA000A168A150800F400F301741C7D2F7E2F30
:103EFA00822F7208FF007F08F3070310F20D0310E8
:103F0A00F40C7408031D8A2F8B2F7A2F730808006C
:103F1A00F4007408F300720884000130F207831376
:103F2A000008FF00730884000130F3077F0880004F
:103F3A000008031DA12FA22F902F0800F6000A16D1
:103F4A008A15E4260A168A15A0300A168A15FF264B
:103F5A000A168A1576080A168A15FF260A168A1577
:103F6A0075080A168A15FF260A168A150A168A1568
:103F7A00ED260A168A150800F5007508F4000330C4
:103F8A000310F40DFF3E031DC52F831203131F08F0
:103F9A00C73974049F001F151F19D42FD52FD12F8D
:103FAA001E08F700831603131E08F6007708F300AD
:103FBA007608F2000800F5007218E42FE82F831241
:103FCA0003130915EB2F83120313091175088800CF
:103FDA008914A630F300F30BF02F000083120313A9
:103FEA0089101B30F4009E30F300F30BFA2FF40B08
:063FFA00FA2F0000080090
:02400E00FB3F76
:00000001FF
